:100000002C060020A9090000210A0000290A00008E
:10001000310A0000310A0000310A0000000000002F
:10002000000000000000000000000000310A000095
:10003000310A000000000000310A0000310A00000F
:10004000310A0000310A0000310A0000310A0000C4
:10005000310A0000310A0000310A0000310A0000B4
:10006000310A0000310A0000310A0000310A0000A4
:10007000310A0000310A0000310A0000310A000094
:10008000310A0000310A0000310A0000310A000084
:10009000310A0000310A0000310A0000310A000074
:1000A000310A0000310A0000310A0000310A000064
:1000B000310A0000310A0000310A0000310A000054
:1000C000310A0000310A0000310A0000310A000044
:1000D000310A0000310A0000310A0000310A000034
:1000E000310A00000000000000000000310A00009A
:1000F000310A0000310A0000310A0000310A000014
:10010000310A0000310A0000310A0000310A000003
:100110000000000000000000310A0000310A000069
:10012000310A0000310A0000310A0000310A0000E3
:10013000310A0000310A0000310A0000310A0000D3
:1001400000000000000000000000000000000000AF
:10015000310A0000310A0000310A0000310A0000B3
:10016000000000000000000000000000000000008F
:10017000000000000000000000000000000000007F
:10018000000000000000000000000000000000006F
:10019000000000000000000000000000000000005F
:1001A000000000000000000000000000000000004F
:1001B000310A0000310A0000310A0000310A000053
:1001C000310A0000310A0000310A0000310A000043
:1001D000310A0000310A0000310A0000310A000033
:1001E000310A0000310A0000310A0000000000005E
:1001F00000000000310A0000310A0000310A00004E
:10020000310A0000310A0000000000000000000078
:10021000310A0000310A0000310A0000310A0000F2
:10022000310A0000310A0000310A0000310A0000E2
:10023000310A0000310A0000310A0000310A0000D2
:10024000310A0000310A0000310A0000310A0000C2
:10025000310A0000310A0000310A0000310A0000B2
:10026000310A0000310A0000310A000080B483B076
:1002700000AF4EF20813C4F20F034EF20812C4F29C
:100280000F02126842F010021A604EF20863C4F2C4
:100290000F031B687B6044F22053C4F2020344F254
:1002A0004B32C4F64F421A6044F22453C4F20203A4
:1002B0003F221A6044F22853C4F2020300221A605B
:1002C00044F22C53C4F2020300221A604FF4884314
:1002D000C4F202033F221A6044F22043C4F2020334
:1002E00000221A6044F21053C4F202033F221A6043
:1002F00044F21C53C4F202033F221A6044F2FC335E
:10030000C4F2020344F2FC32C4F20202126842F068
:1003100010021A6044F2FC33C4F2020344F2FC32CD
:10032000C4F20202126842F020021A600C37BD4685
:100330005DF8047B704700BF80B483B000AF4EF21D
:100340000813C4F20F034EF20812C4F20F0212682F
:1003500042F002021A604EF20813C4F20F031B6847
:100360007B604FF4A843C4F200034FF4A842C4F2E8
:100370000002126842F0FF021A6045F22043C4F204
:10038000000345F22042C4F20002126822F0FF028C
:100390001A6045F21C53C4F2000345F21C52C4F229
:1003A0000002126842F0FF021A6045F2FC33C4F208
:1003B000000345F2FC32C4F20002126842F00F0260
:1003C0001A600C37BD465DF8047B704780B500AFFE
:1003D0004FF48040C4F202002021002200F0EAFB2A
:1003E0004FF48040C4F202002021202200F0E2FB02
:1003F0004FF48040C4F202002021002200F0DAFB1A
:1004000080BD00BF80B500AF4FF48040C4F2020051
:100410001021002200F0CEFB80BD00BF80B500AFF0
:100420004FF48040C4F202001021102200F0C2FB01
:1004300080BD00BF80B582B000AF03463960FB715C
:100440003B68002B02D0FFF7E9FF01E0FFF7DAFF7E
:100450004FF4C87000F0D8FB97F907301B11DBB2DE
:10046000DBB24FF4A040C4F200000F211A4600F0A6
:10047000A1FBFFF7ABFFFB794FF4A040C4F20000F3
:100480000F211A4600F096FBFFF7A0FF0837BD4684
:1004900080BD00BF80B584B000AF02460B46FA7144
:1004A000BB7197F90730002B02D10023FB7308E0E2
:1004B00097F90730012B02D14023FB7301E00023A1
:1004C000FB73FA7BBB791343FB73FB7B63F07F0306
:1004D000DBB25BB218460021FFF7ACFF1037BD4618
:1004E00080BD00BF80B500AF01200021FFF7A2FF53
:1004F00002200021FFF79EFF47F2305000F084FBFE
:1005000080BD00BF80B500AF0C200021FFF792FF37
:1005100080BD00BF80B500AF40F60300CFF2000001
:1005200000F05AFB40F60400CFF2000000F054FB4C
:100530004FF4A040C4F200000F2100F03EFB4FF446
:100540008040C4F20200302100F037FB4FF4A0409D
:10055000C4F200000F21002200F02CFB4FF4804079
:10056000C4F202003021002200F024FB42F210709D
:1005700000F04AFBFFF746FF43F6982000F044FBEB
:100580004FF4A040C4F200000F21022200F012FB41
:10059000FFF71CFF4FF4A040C4F200000F2102221D
:1005A00000F008FBFFF712FF28200021FFF742FFB1
:1005B000FFF7A8FF06200021FFF73CFFFFF792FF9F
:1005C00080BD00BF80B582B000AF78600CE06420D1
:1005D00000F01AFB7B681B785BB218460121FFF71D
:1005E00029FF7B6801337B607B681B785BB2002B43
:1005F000EDD10837BD4680BD80B58CB000AFFFF7A8
:100600009BFEFFF733FE4FF4A860C0F2402000F0DD
:10061000FFFAFFF77FFFFFF775FF00F08DFB024643
:10062000D3179B0F1A4402F00302D31AFB62FA6A33
:10063000BB6A9A4209D100F07FFB0246D3179B0F99
:100640001A4402F00302D31AFB62FB6A002B40D16A
:1006500045F2FC33C4F2000345F2FC32C4F200025E
:10066000126842F010021A6000200021FFF712FF0A
:1006700040F68050C0F20000FFF7A4FF01200021E7
:10068000FFF708FF47F22060C0F29A1000F0BCFAB2
:1006900040F68C50C0F20000FFF794FF43F6103094
:1006A000C0F2CD0000F0B0FAFFF71CFF4BF23010A3
:1006B000C0F2672000F0A8FA45F2FC33C4F2000350
:1006C00045F2FC32C4F20002126822F010021A60F5
:1006D00066E1FB6A012B40D145F2FC33C4F2000312
:1006E00045F2FC32C4F20002126842F020021A60A5
:1006F00001200021FFF7CEFE40F69C50C0F2000022
:10070000FFF760FF47F22060C0F29A1000F07CFA19
:1007100000200021FFF7BEFE40F68050C0F200002E
:10072000FFF750FF43F61030C0F2CD0000F06CFA36
:10073000FFF7D8FE4BF23010C0F2672000F064FAE9
:1007400045F2FC33C4F2000345F2FC32C4F200026D
:10075000126822F020021A6022E1FB6A022B40F0AC
:100760008D8045F2FC33C4F2000345F2FC32C4F242
:100770000002126842F040021A6001237B621C23CF
:100780003B620023FB612AE03A6AFB691344292B90
:1007900005D10123FB6100233B6200237B627B6A5E
:1007A000DAB23B6AD9B2FB69DBB20B44DBB2DBB233
:1007B00052B25BB210461946FFF76CFE40F680500D
:1007C000C0F20000FFF7FEFE48F68050C0F25B006A
:1007D00000F01AFAFFF786FEFB690133FB61FB6943
:1007E000102BD1DD47F22060C0F29A1000F00CFA15
:1007F0001A23BB6100237B612AE0BA697B69134439
:10080000282B05D100237B610023BB6101237B6280
:100810007B6ADAB2BB69D9B27B69DBB20B44DBB26B
:10082000DBB252B25BB210461946FFF733FE40F618
:100830009C50C0F20000FFF7C5FE48F68050C0F2A1
:100840005B0000F0E1F9FFF74DFE7B6901337B614E
:100850007B69102BD1DD4BF23010C0F2672000F025
:10086000D3F945F2FC33C4F2000345F2FC32C4F282
:100870000002126822F040021A6091E0FB6A032B2A
:1008800040F08E8045F2FC33C4F2000345F2FC32A6
:10089000C4F20002126842F080021A6000237B62F8
:1008A00000233B611023FB602AE03A69FB68134494
:1008B000002B05D101237B621C233B610C23FB60D1
:1008C0007B6ADAB23B69D9B2FB68DBB20B44DBB2BC
:1008D000DBB252B25BB210461946FFF7DBFD40F6C1
:1008E0008050C0F20000FFF76DFE48F68050C0F265
:1008F0005B0000F089F9FFF7F5FDFB68013BFB6049
:10090000FB68002BD1DA47F22060C0F29A1000F0A9
:100910007BF901237B620023BB6010237B602AE00C
:10092000BA687B681344002B05D100237B621A232D
:10093000BB600E237B607B6ADAB2BB68D9B27B688E
:10094000DBB20B44DBB2DBB252B25BB210461946EB
:10095000FFF7A0FD40F69C50C0F20000FFF732FE0A
:1009600048F68050C0F25B0000F04EF9FFF7BAFD88
:100970007B68013B7B607B68002BD1DA4BF2301047
:10098000C0F2672000F040F945F2FC33C4F20003E6
:1009900045F2FC32C4F20002126822F080021A60B2
:1009A000FB6ABB6239E600BF80B582B000AF40F69B
:1009B000B053C0F200037B6040F20003C2F20003B8
:1009C0003B6007E03B681A1D3A607A68111D796048
:1009D00012681A603A6840F22C43C2F200039A424D
:1009E000F0D30D480D494FF000028842B8BF40F8DF
:1009F000042BFADB4EF68853CEF200034EF68852F3
:100A0000CEF20002126842F470021A60FFF7F4FDA1
:100A10000837BD4680BD00002C0400202C060020B5
:100A200080B400AFFEE700BF80B400AFFEE700BFB8
:100A300080B400AFFEE700BFD0F8003412F0010F21
:100A400010B500F5806414BF0B438B43236012F094
:100A5000020FD0F8202400F5846314BF114322EA6A
:100A60000101196010BDF0B5560906F00306002417
:100A700051FA04F515F0010F11D0D0F8C47F6500CC
:100A80004FF0030C0CFA05FC27EA0C07C0F8C47FF2
:100A9000D0F8C47F16FA05F53D43C0F8C45F0134B1
:100AA000082CE5D1D0F8004512F0010F00F5A06543
:100AB00014BF0C438C432C60D0F8045500F5A0649F
:100AC00012F0020F04F1040414BF0D438D4325609E
:100AD000D0F8084512F0040F00F5A16514BF0C43CF
:100AE0008C432C60D0F8184512F0080F00F5A36570
:100AF00014BF0C438C432C60D0F83C4512F0100F0F
:100B000000F5A66202F10C0214BF0C438C43146082
:100B1000D0F80C4500F5A06213F0010F02F10C02B1
:100B200014BF0C438C431460D0F8102513F0020F4F
:100B300000F5A26414BF0A438A432260D0F814452A
:100B400000F5A26213F0040F02F1040214BF0C437B
:100B50008C431460D0F81C4500F5A26213F0080F16
:100B600002F10C0214BF0C438C431460D0F84445CE
:100B700000F5A86213F4007F02F1040214BF0C43D5
:100B80008C431460D0F8402513F4407F00F5A8642E
:100B900014BF0A438A43226000F5A56223B9D0F846
:100BA000283543EA010103E0D0F8283523EA0101A2
:100BB0001160F0BD40F82120704770B50122082374
:100BC00005460C46FFF74FFF284621460122BDE8A7
:100BD0007040FFF731BF00000A4B00F47F4200F085
:100BE000FF0003EB1223800003F0704240F000701E
:100BF00023F07F43104323F4700340EA43130122A0
:100C00001A60704700E60F400138FDD170470000C0
:100C10004149F0B5414E0D68346845F4006525F44E
:100C2000800344F4006415F0010F0B60346016D0AB
:100C300010F0010F13D160F001021340384A4FF455
:100C4000807515600B604FF4002201E0013A62D01C
:100C50003449096811F4807FF8D0002A5BD000F491
:100C6000FE6223F4FE6330492D4E134324F000420C
:100C700000EA010122F0700241EA020200F00801DC
:100C800042EAC102244C2549236000F400550A6061
:100C900023F4005322F400522B4340272A433760A9
:100CA0004EBF0A6023600A60204948BF236023F0DA
:100CB000F86300EA010123F001030B4322F0FC5228
:100CC00000F0FC5110F0804F42EA010208D01849B0
:100CD00022F4800200EA010143F480030A4301E0A8
:100CE00022F0804210F4006F0CD14FF40041114803
:100CF000006810F0010F01D10139F8D123F400632D
:100D000022F4006204490B60044B10201A60BDE815
:100D1000F040FFF779BFF0BD60E00F4070E00F409A
:100D200058E00F4050E00F40300000800100C00745
:100D30000000404068E10F4010B440F22843C2F286
:100D400000034FF22D401968D1F8A820D1F8AC402B
:100D5000C5F6510047F62D7300FB02F0C4F695432B
:100D600003FB0404A2FB03232344013243F10003E9
:100D7000C1E92A2323F000405DF8044B704700BF0F
:100D80004B6F6361656C6920556E6900496C7961D0
:100D900073204D616D6D61646F762000496C7961DF
:100DA00073204D616D6D61646F760000430000003B
:100DB00000000000EC02002054030020BC030020CF
:100DC0000000000000000000000000000000000023
:100DD0000000000000000000000000000000000013
:100DE00000000000AC0D000000000000000000004A
:100DF00000000000000000000000000000000000F3
:100E000000000000000000000000000000000000E2
:100E100000000000000000000000000000000000D2
:100E200000000000000000000000000000000000C2
:100E300000000000000000000000000000000000B2
:100E400000000000000000000000000000000000A2
:100E50000000000000000000010000000000000091
:100E60000E33CDAB34126DE6ECDE05000B00000056
:100E70000000000000000000000000000000000072
:100E80000000000000000000000000000000000062
:100E90000000000000000000000000000000000052
:100EA0000000000000000000000000000000000042
:0C11D000000000000000000000000020F3
:00000001FF
